:020000040800F2
:100000004011002089010008511B00080918000850
:100010004D1B0008050E00087F29000800000000A5
:100020000000000000000000000000002120000887
:100030007514000800000000471D0008ED210008AD
:10004000A3010008A3010008A3010008A301000800
:10005000A3010008A3010008A3010008A3010008F0
:10006000A3010008A3010008A3010008A3010008E0
:10007000A3010008A3010008A3010008A3010008D0
:10008000A3010008A3010008A3010008A3010008C0
:10009000A3010008A3010008A3010008A3010008B0
:1000A000A3010008A3010008A3010008A3010008A0
:1000B000A301000865220008A3010008A3010008AD
:1000C000A3010008A3010008A3010008A301000880
:1000D000A3010008A3010008A3010008812700086C
:1000E000A3010008A3010008A301000800F002F822
:1000F00000F03AF80AA090E8000C82448344AAF188
:100100000107DA4501D100F02FF8AFF2090EBAE885
:100110000F0013F0010F18BFFB1A43F0010318473B
:100120005893000078930000103A24BF78C878C133
:10013000FAD8520724BF30C830C144BF04680C60ED
:10014000704700000023002400250026103A28BF35
:1001500078C1FBD8520728BF30C148BF0B60704739
:100160001FB51FBD10B510BD00F06CF81146FFF7AC
:10017000F7FF05F033FD00F08AF803B4FFF7F2FF54
:1001800003BC00F08DF8000009488047094800478B
:10019000FEE7FEE7FEE7FEE7FEE7FEE7FEE7FEE737
:1001A000FEE7FEE704480549054A064B7047000094
:1001B00005220008ED000008400B0020401100203F
:1001C000400D0020400D00204FF0000200B5134606
:1001D00094469646203922BFA0E80C50A0E80C5067
:1001E000B1F12001BFF4F7AF090728BFA0E80C5018
:1001F00048BF0CC05DF804EB890028BF40F8042B11
:1002000008BF704748BF20F8022B11F0804F18BF7D
:1002100000F8012B704770477047704710B500F029
:1002200009F8006810BD10B5044600F003F804603A
:1002300010BD000000487047DC0A002000487047ED
:10024000DC0A00207546FFF7F9FFAE460500694657
:10025000534620F00700854618B020B5FFF7A2FFEF
:10026000BDE820404FF000064FF000074FF00008B7
:100270004FF0000B21F00701AC46ACE8C009ACE838
:10028000C009ACE8C009ACE8C0098D46704710B59C
:100290000446AFF300802046BDE81040FFF76DBF75
:1002A00001491820ABBEFEE726000200704721B1CD
:1002B000826842F00102826003E0826822F001025B
:1002C0008260704721B1826842F48072826003E0EC
:1002D000826822F4807282607047014600208A683A
:1002E00002F004020AB1012000E000207047000083
:1002F00030B502460020002350680F4C20400D7995
:100300000C6844EA05242043506090680B4C204060
:10031000D1E902542C434D7944EA450420439060CE
:10032000D06A20F470000C7C641EE4B2234340EADF
:100330000350D06230BD0000FFFEF0FFFDF7F1FF7B
:10034000F0B504460D4600200021092D11DDE068BE
:10035000A5F10A0606EB4607072606FA07F18843C9
:10036000A5F10A0606EB460603FA06F10843E0602B
:100370000CE0206905EB4507072606FA07F18843DC
:1003800005EB450603FA06F108432061072A0FDA58
:10039000606B561E06EB86071F2606FA07F1884398
:1003A000561E06EB860605FA06F10843606322E056
:1003B0000D2A0FDA206BD61F06EB86071F2606FADA
:1003C00007F18843D61F06EB860605FA06F10843B7
:1003D000206310E0E06AA2F10D0606EB86071F26F7
:1003E00006FA07F18843A2F10D0606EB860605FA28
:1003F00006F10843E062F0BD816841F008018160C8
:10040000704721B1826842F4A002826003E08268F2
:1004100022F4A00282607047816841F0040181608B
:1004200070470000F0B58BB056480078401C554925
:10043000087008460078012802D100F087FA9FE092
:1004400050480078022826D14F49886B08F0C4FA3A
:1004500004B24D49086A08F0BFFA05B24B498868F2
:1004600008F0BAFA06B24A48B0F90400CDE90265CC
:10047000049401904648B0F90200454F0090B7F946
:100480000030444FB7F90420B7F90210B7F9000063
:1004900000F09CF974E03B480078032834D13E49D1
:1004A00048683E4908F02EF9074608F0DBFA84B2A6
:1004B00039498868394908F025F9074608F0D2FA21
:1004C00086B23549C868354908F01CF9074608F076
:1004D000C9FA85B2002002900390049005902E483E
:1004E000407C00F2DC502C49097C01F2DC51CDE962
:1004F00000102949098801F57A7188B223463246ED
:10050000294600F0AFF83BE01E480078042805D1EA
:1005100023494868002100F049F831E01948007883
:10052000052826D11F48406B1E49C96B1D4A5269D8
:100530001C4BDB6CCDE90732CDE909101948416A43
:100540001148806E184AD2680F4B9B6BCDE903327D
:10055000CDE905010C48006A0C49896823221E2355
:10056000CDE900210290192214210F2000F09EFAFB
:1005700006E004480078062802D1002001490870EE
:100580000BB0F0BD66000020980700206C0700202B
:100590002A00002024000020E00300200080BB444B
:1005A000600700207C0A0020BC0400202DE9F843ED
:1005B00006460F460024AA222146641C27484254BE
:1005C0002146641C425405222146641C42540022E8
:1005D0002146641C42542249304608F0C3FA804642
:1005E00008F040FA80B200909DF801202146641C7A
:1005F0001A4842549DF800202146641C4254394652
:10060000174808F0AFFA804608F02CFA80B2009044
:100610009DF801202146641C104842549DF800209A
:100620002046611CCCB20D490A54201FC870002519
:10063000002005E00949095C2944CDB2411CC8B23B
:10064000A042F7DB2046611CCCB204490D54214680
:10065000024802F07DF8BDE8F88300007003002036
:100660000000C8427FB5002400250026AA222146AA
:10067000641C554842542146641C425403222146BE
:10068000641C425400222146641C42549DF80120FF
:100690002146641C42549DF800202146641C4254AB
:1006A0009DF805202146641C42549DF804202046F4
:1006B000611CCCB244490A549DF809202046611CB3
:1006C000CCB241490A549DF808202046611CCCB2A6
:1006D0003D490A549DF80D202046611CCCB23A4990
:1006E0000A549DF80C202046611CCCB236490A54AD
:1006F0009DF821202046611CCCB233490A549DF854
:1007000020202146601CC4B22F4842549DF8252069
:100710002046611CCCB22C490A549DF82420204666
:10072000611CCCB228490A549DF829202046611C3E
:10073000CCB225490A549DF828202046611CCCB231
:1007400021490A549DF82D202046611CCCB21E4937
:100750000A549DF82C202046611CCCB21A490A5438
:100760009DF831202046611CCCB217490A549DF8EF
:1007700030202046611CCCB213490A549DF8352024
:100780002046611CCCB210490A549DF83420204602
:10079000611CCCB20C490A54201FC87000BF00BFB6
:1007A00005E00948405D3044C6B2681CC5B2A542A8
:1007B000F7DB2046611CCCB203490E5421460248A7
:1007C00001F0C6FF7FBD0000700300202DE9F84F47
:1007D00006460F4690469946DDF828B00024A2460A
:1007E0000025AA222146641C574842542146641C15
:1007F000425402222146641C425400222146641CB9
:10080000425400969DF801202146641C42549DF8F4
:1008100000202146641C425400979DF80120214687
:10082000641C42549DF800202046611CCCB246490D
:100830000A54CDF800809DF801202046611CCCB2FE
:1008400041490A549DF800202046611CCCB23E4923
:100850000A54CDF800909DF801202046611CCCB2CE
:1008600039490A549DF800202046611CCCB2364913
:100870000A54CDF800B09DF801202046611CCCB28E
:1008800031490A549DF800202046611CCCB22E4903
:100890000A540B9800909DF801202046611CCCB2B0
:1008A00029490A549DF800202046611CCCB22649F3
:1008B0000A540C9800909DF801202046611CCCB28F
:1008C00021490A549DF800202046611CCCB21E49E3
:1008D0000A540D9800909DF801202046611CCCB26E
:1008E00019490A549DF800202046611CCCB21649D3
:1008F0000A540E9800909DF801202046611CCCB24D
:1009000011490A549DF800202046611CCCB20E49C2
:100910000A54201FC87000BF00BF06E00A48405DAF
:10092000504400F0FF0A681CC5B2A542F6DB204621
:10093000611CCCB2044901F800A02146024801F034
:1009400007FFBDE8F88F0000700300202DE9FC418F
:1009500000240026AA222146641C4F484254214606
:10096000641C425401222146641C42540022214648
:10097000641C42544949886A494908F0F3F807461B
:1009800008F02AF800B201909DF805202146641C69
:10099000414842549DF804202146641C42543F497A
:1009A000486A3F4908F0DEF8074608F015F800B23B
:1009B00001909DF805202146641C374842549DF85B
:1009C00004202146601CC4B2334842543349C86AEB
:1009D000334908F0C7F8074607F0FEFF00B2019060
:1009E0009DF805202146601CC4B22B4842549DF856
:1009F00004202046611CCCB227490A542948C1680A
:100A0000274808F0AFF8074607F0E6FF00909DF88A
:100A100003202046611CCCB21F490A549DF80220D5
:100A20002046611CCCB21C490A549DF80120204686
:100A3000611CCCB218490A549DF800202046611C64
:100A4000CCB215490A5401222046611CCCB212498D
:100A50000A541548007800F001022146601CC4B217
:100A60000D484254201F0C49C87000BF002505E006
:100A70000948405D3044C6B2681CC5B2A542F7DBE8
:100A80002046611CCCB204490E542146024801F0B4
:100A90005FFEBDE8FC8100007003002050040020D0
:100AA0000000C842BC040020600000202DE9FC5F6B
:100AB00006460F4690469946DDF830B00024A2461F
:100AC0000025AA222146641CCD4842542146641CBC
:100AD0004254F1222146641C425400222146641CE7
:100AE000425401969DF805202146641C42549DF80D
:100AF00004202146641C425401979DF8052021469C
:100B0000641C42549DF804202046611CCCB2BC49B0
:100B10000A54CDF804809DF805202046611CCCB213
:100B2000B7490A549DF804202046611CCCB2B44950
:100B30000A54CDF804909DF805202046611CCCB2E3
:100B4000AF490A549DF804202046611CCCB2AC4940
:100B50000A54CDF804B09DF805202046611CCCB2A3
:100B6000A7490A549DF804202046611CCCB2A44930
:100B70000A540D9800909DF803202046611CCCB2C9
:100B80009F490A549DF802202046611CCCB29C4922
:100B90000A549DF801202046611CCCB298490A54A1
:100BA0009DF800202046611CCCB295490A540E984D
:100BB00000909DF803202046611CCCB290490A5455
:100BC0009DF802202046611CCCB28D490A549DF844
:100BD00001202046611CCCB289490A549DF80020AE
:100BE0002046611CCCB286490A540F9800909DF8AB
:100BF00003202046611CCCB281490A549DF8022092
:100C00002046611CCCB27E490A549DF80120204642
:100C1000611CCCB27A490A549DF800202046611C20
:100C2000CCB277490A54109800909DF803202046D2
:100C3000611CCCB272490A549DF802202046611C06
:100C4000CCB26F490A549DF801202046611CCCB2F9
:100C50006B490A549DF800202046611CCCB26849BB
:100C60000A54119800909DF803202046611CCCB2D4
:100C700063490A549DF802202046611CCCB26049A9
:100C80000A549DF801202046611CCCB25C490A54EC
:100C90009DF800202046611CCCB259490A54129894
:100CA00000909DF803202046611CCCB254490A54A0
:100CB0009DF802202046611CCCB251490A549DF88F
:100CC00001202046611CCCB24D490A549DF80020F9
:100CD0002046611CCCB24A490A54139800909DF8F2
:100CE00003202046611CCCB245490A549DF80220DD
:100CF0002046611CCCB242490A549DF8012020468E
:100D0000611CCCB23E490A549DF800202046611C6B
:100D1000CCB23B490A54149800909DF80320204619
:100D2000611CCCB236490A549DF802202046611C51
:100D3000CCB233490A549DF801202046611CCCB244
:100D40002F490A549DF800202046611CCCB22C4942
:100D50000A54159800909DF803202046611CCCB2DF
:100D600027490A549DF802202046611CCCB2244930
:100D70000A549DF801202046611CCCB220490A5437
:100D80009DF800202046611CCCB21D490A541698DB
:100D900000909DF803202046611CCCB218490A54EB
:100DA0009DF802202046611CCCB215490A549DF8DA
:100DB00001202046611CCCB211490A549DF8002044
:100DC0002046611CCCB20E490A54201FC87000BFD7
:100DD00000BF06E00A48405D504400F0FF0A681C6E
:100DE000C5B2A542F6DB2046611CCCB2044901F82D
:100DF00000A02146024801F0ABFCBDE8FC9F0000CA
:100E00007003002000BFFEE72DE9F05F06460F46A5
:100E1000914600244AE0601C05B243E004EB440222
:100E200007EBC20252F8241004EB440207EBC202A3
:100E300052F8250007F0DAFC82460021504607F000
:100E400097FD2DD056F82410504607F08BFE8346B0
:100E500056F8251007F083FF46F82500A8461CE049
:100E600008EB480007EBC00050F82410504607F08C
:100E700079FE834608EB480007EBC00050F82510C8
:100E8000584607F06CFF08EB480107EBC10141F839
:100E9000250008F101000FFA80F8B8F1060FDFDB3A
:100EA000681C05B2062DB9DB601C04B2062CB2DB4F
:100EB000052434E004EB440207EBC20252F824108C
:100EC00056F8240007F092FC46F824004FF07E50BC
:100ED00004EB440107EBC10141F8240000251AE0AE
:100EE00004EB440007EBC00050F825A056F824108E
:100EF000504607F037FE834656F8251007F02FFFBF
:100F000046F82500002004EB440107EBC10141F83D
:100F10002500681C05B2A542E2DB601E04B2002C6D
:100F2000C8DA002405E056F8240049F82400601CC3
:100F300004B2062CF7DBBDE8F09F30B502460B4645
:100F4000002011E0002442F82040002108E00024A5
:100F500000EB400503EBC50545F821404C1C21B2D0
:100F60000629F4DB441C20B20628EBDB30BD2DE95A
:100F7000F04F8BB006460F4690469A464FF07E5093
:100F8000099000243DE0E01C58F8209058F8241007
:100F90005AF8240007F0EEFE0A904946484607F04A
:100FA000E1FD01900A9907F0DDFD02900A9907F032
:100FB000D9FD8346099907F0D2FE099049464FF0C2
:100FC000804007F0CFFD4946029007F0CBFD8346F5
:100FD0000A9907F0C7FD03A941F8240049464FF0DC
:100FE000404007F0BFFD02900A9907F0BBFD834621
:100FF0000A9907F0B7FDE11C03AA42F82100601C22
:1010000004B2032CBFDB00242BE003A951F8240019
:10101000099907F0A7FD834656F8241007F072FBE4
:1010200046F82400002518E003AA52F8251052F8CB
:10103000240007F097FD834604EB440007EBC00053
:1010400050F82510584607F05DFB04EB440107EB10
:10105000C10141F82500681C05B2062DE4DB601CC7
:1010600004B2062CD1DB0BB0BDE8F08F2DE9F04FB8
:10107000C5B007460E4614464FF00008DFF83C9214
:101080008F484490002041904290439018213BA803
:10109000FFF79AF8182135A8FFF796F818212FA81E
:1010A000FFF792F890210BA8FFF78EF801200A9025
:1010B00000203D903C903B90824840903F903E9075
:1010C00090E008F101000FFA80F80BA92FA8FFF7B4
:1010D00034FF002518E005EB450057F8200041904B
:1010E00005EB450007EB80004068429005EB4500AA
:1010F00007EB80008068439041AB3BAA0BA92FA867
:10110000FFF735FF681C05B2062DE4DB35AA0BA9F5
:101110002FA8FFF779FE4099084607F023FD824685
:101120003A99084607F01EFD8346514607F05EFBDC
:1011300009903F99084607F015FD834639990846FE
:1011400007F010FD5946069007F050FB82463E9985
:10115000084607F007FD05903899084607F002FD9C
:101160000490059907F042FB06903799084607F06E
:10117000F9FC05903699084607F0F4FC0390359980
:10118000084607F0EFFC01903599084607F0EAFCA5
:101190000090019907F0B6FA0290039907F0B2FAAD
:1011A0000490059907F0AEFA8346069907F0AAFA6B
:1011B0005146079007F0A6FA0890099907F0A2FA9D
:1011C000449000250CE035AA52F825103BAA52F8AD
:1011D000250007F0CFFD3BA941F82500681C05B2AA
:1011E000062DF0DBB8F1140F05DA4946449807F0F4
:1011F00085FDFFF466AF34493E9807F0B3FC2060EC
:1012000031493F9807F0AEFC60602F49409807F0E5
:10121000A9FCA06021683B9807F0A4FC30606168DD
:101220003C9807F09FFC7060A1683D9807F09AFC1D
:10123000B0604FF07E51206807F09CFD20F0004A1E
:101240002249504607F05AFD17D34FF07E5160688F
:1012500007F090FD20F0004A1C49504607F04EFD73
:101260000BD34FF07E51A06807F084FD20F0004AB8
:101270001649504607F042FD01D200200A9030681E
:1012800020F0004A1249504607F038FD0FD370682D
:1012900020F0004A0E49504607F030FD07D3B068F1
:1012A00020F0004A0A49504607F028FD01D20020EC
:1012B0000A900A9845B0BDE8F08F00005F70893051
:1012C0000000C8427FD6D03D0AE81C41CDCC4C3E40
:1012D0000000604021B1026842F00102026004E0B7
:1012E00002684FF6FE731A400260704701684FF6BD
:1012F000FE72114001600021016041608160C160A7
:101300004B49884208D14A490839496841F00F01E0
:10131000474A083A51608AE045491431884208D169
:1013200043490839496841F0F001414A083A51609F
:101330007DE03F492831884208D13D490839496854
:1013400041F470613A4A083A516070E038493C31E2
:10135000884208D136490839496841F47041344A15
:10136000083A516063E032495031884208D130492F
:101370000839496841F470212D4A083A516056E015
:101380002B496431884208D129490839496841F418
:101390007001274A083A516049E02549783188426E
:1013A00008D123490839496841F07061204A083A58
:1013B00051603CE01F49884206D1011F096841F095
:1013C0000F01021F116032E01A491431884208D11E
:1013D0001849091F096841F0F001164A121F1160EF
:1013E00025E014492831884208D11249091F0968AB
:1013F00041F470610F4A121F116018E00D493C3131
:10140000884208D10B49091F096841F47041094A13
:10141000121F11600BE007495031884207D105497E
:10142000091F096841F47021024A121F11607047B8
:10143000080002400804024010B50022026847F686
:10144000F0739A430C6A8B6823430C6923434C69FD
:1014500023438C692343CC6923434C6A23438C6A1E
:1014600023431A430260CB6843600B6883604B6878
:10147000C36010BD7047000010B5454800880A28B9
:1014800016DC4349C868434907F038FB10D8404987
:101490004868414907F032FC0AD83D4988683D490F
:1014A00007F02CFB04D83D484088401C3B4948804D
:1014B000374800880A2825DC3549C868354907F0CF
:1014C0001DFB1FD832494868334907F017FC19D86B
:1014D0002F4988682F4907F011FB13D82F484088FF
:1014E000B0F5167F0EDB00202C49488008460078B6
:1014F00020F00100401C08700846007820F002002F
:10150000801C0870224800880A2816DC2049C86818
:10151000214907F0F3FB10D81D4948681E4907F020
:10152000EDFB0AD81A4988681B4907F0E7FB04D885
:101530001A488088401C19498880154800880A2864
:1015400024DC1349C868144907F0D8FB1ED8104999
:101550004868114907F0D2FB18D80D4988680E4930
:1015600007F0CCFB12D80D488088B0F5167F0DDB54
:1015700000200A4988800846007820F001000870A1
:101580000846007820F00400001D087010BD00001F
:10159000E00300200000C8C10000C8416000002036
:1015A0000149C860704700000020024030B5044681
:1015B00004254FF4302000F085F80546042D17D19E
:1015C0000C48006940F002000A490861084644617D
:1015D000006940F0400008614FF4302000F072F8DC
:1015E00005460448006941F6FD710840014908615B
:1015F000284630BD0020024004200B49C96801F094
:10160000010109B101200EE00749C96801F0040198
:1016100009B1022007E00449C96801F0100109B1CD
:10162000032000E0042070470020024003480069C6
:1016300040F080000149086170470000002002402E
:1016400078B506460C46042500200090E80200F01C
:1016500039F80546042D24D11348006940F00100F3
:10166000114908613480E80200F02CF80546042D89
:1016700010D1B01C0090200C00990880E80200F006
:1016800021F805460848006941F6FE710840064900
:10169000086106E00448006941F6FE71084002490D
:1016A0000861284678BD0000002002400248034936
:1016B00048600348486070472301674500200240A6
:1016C000AB89EFCD00B502460423FFF795FF034633
:1016D00003E0FFF791FF0346521E012B01D1002AC0
:1016E000F7D102B90523184600BD2DE9F0410246A5
:1016F00000250026002000230024002791F803C0C5
:101700000CF00F0591F803C00CF0100CBCF1000FA9
:1017100003D091F802C04CEA050591F800C0BCF175
:10172000000F31D0146800202BE04FF0010C0CFAB0
:1017300000F3B1F800C00CEA03069E4220D18300FA
:101740004FF00F0C0CFA03F7BC4305FA03FC4CEA0C
:10175000040491F803C0BCF1280F06D14FF0010C2E
:101760000CFA00FCC2F814C00AE091F803C0BCF106
:10177000480F05D14FF0010C0CFA00FCC2F810C064
:10178000401C0828D1D31460B1F800C0BCF1FF0F91
:1017900034DD546800202EE000F1080C4FF0010801
:1017A00008FA0CF3B1F800C00CEA03069E4221D1FE
:1017B00083004FF00F0C0CFA03F7BC4305FA03FC4F
:1017C0004CEA040491F803C0BCF1280F05D100F1E4
:1017D000080C08FA0CF8C2F8148091F803C0BCF1A8
:1017E000480F07D100F1080C4FF0010808FA0CF877
:1017F000C2F81080401C0828CED35460BDE8F081A8
:10180000416170470161704700BFFEE708B50121E3
:10181000082000F0C5FA4FF48070ADF800001420E5
:101820008DF8030003208DF8020069460F48FFF78A
:101830005CFF4FF40070ADF8000014208DF8030039
:1018400003208DF8020069460848FFF74EFF0A2082
:1018500002F0E8FE4FF480710448FFF7D3FF4FF425
:1018600000710248FFF7CEFF08BD0000000C0140E8
:1018700070B5002400F00EFB002516E06006040E93
:101880004FF480700B49086000F0DEF80948083812
:101890000068C0F3402004434FF480700549091DDF
:1018A000086000F0D1F8681CC5B2082DE6DB2046C0
:1018B00070BD0000100C014070B504460D4600F0EC
:1018C0007BF8204600F012F8284600F00FF800F0F0
:1018D00073F8611CC8B200F009F8FFF7C9FF0646AB
:1018E00000F03AF800F07EF8304670BD70B504465E
:1018F000082500F0DFFA1DE04FF4807015490860FC
:1019000000F0A2F804F0800028B14FF400701149F3
:10191000091F086003E04FF400700E49086060067C
:10192000040E00F091F84FF480700A49091F086016
:1019300000F08AF8281EA5F10101CDB2DCD14FF4E8
:1019400080700449086000F007F800B970BD00BF5E
:10195000FCE70000140C014010B500F0ABFA4FF4A6
:1019600080701449086000F06FF84FF4007011495E
:10197000091F086000F08EFA00F066F84FF48070DE
:101980000C49091F086000F05FF80A480C3800682D
:10199000C0F3402028B14FF4807006490860002051
:1019A00010BD4FF480700349086000F04DF801202D
:1019B000F6E70000140C014010B500F07BFA4FF47C
:1019C0008070074908604000086000F03DF84FF45F
:1019D00000700349091D086000F036F810BD0000D2
:1019E000100C014010B500F065FA4FF480700C49FE
:1019F000086000F029F84FF400700949086000F011
:101A000023F84FF480700649091F086000F01CF8A5
:101A10004FF400700249091F086000F015F810BD6E
:101A2000140C014070B506460C461546FFF7C4FF7E
:101A30003046FFF75BFF2046FFF758FF2846FFF7C9
:101A400055FFFFF7CFFF70BD704700002DE9F04153
:101A500005F008F805F010F93349486A334907F0F2
:101A600081F8804606F022FE064605F017FA044685
:101A700006F066F82E4908602B49486A2B4907F0A2
:101A800071F8804606F012FE064602F07DFD04461F
:101A900006F056F8274908602349886A234907F069
:101AA00061F8804606F002FE064605F0F7F90446A6
:101AB00006F046F8204908601B49886A1B4907F070
:101AC00051F8804606F0F2FD064602F05DFD044640
:101AD00006F036F8194908601349C86A134907F037
:101AE00041F8804606F0E2FD064605F0D7F90446C7
:101AF00006F026F8124908600B49C86A0B4907F03E
:101B000031F8804606F0D2FD064602F03DFD04465F
:101B100006F016F80B4908600B4807C803F07AFA7C
:101B200005F00CFABDE8F0815004002035FA8E3C37
:101B300084000020900000208800002094000020F5
:101B40008C000020980000202C01002000BFFEE740
:101B5000704700001CB510A103C9CDE900010522A2
:101B60006946302000F026FA05226946102000F070
:101B7000EBF9002406E01DF80400182800D003E06B
:101B8000601CC4B2052CF6DB00BF052C01D001207F
:101B90001CBD0020FCE700001818181818000000F1
:101BA00008B501210C2000F0FBF80220ADF8000080
:101BB00010208DF8030069460A48FFF796FD1020B3
:101BC000ADF8000028208DF8030069460648FFF7AD
:101BD0008CFD02210348FFF713FE01210148FFF7A6
:101BE00011FE08BD000C01400008014010B50221A3
:101BF0001348FFF705FE052212492A2000F0DAF902
:101C00000021212000F0F6F90121222000F0F2F954
:101C10000C48401E8179252000F0ECF90B21312081
:101C200000F0E8F90721262000F0E4F90F21202038
:101C300000F0E0F902210248FFF7E4FD10BD0000CA
:101C4000000C0140C900002070B50446072000F0D8
:101C50009BF905462946272000F0CCF905F0400005
:101C600050B10B222146612000F06EF9FF21E220E5
:101C700000F0C0F9002070BD0120FCE770B5002124
:101C800000230F22C47804B3154C246804F4E064E4
:101C9000C4F5E064210AC1F10403CA40447804FA9F
:101CA00003F184781440214309010E4C0678A155B4
:101CB000047804F01F050124AC4005786D11AD00D7
:101CC00005F1E025C5F8004109E0047804F01F059E
:101CD0000124AC40044D0678761145F8264070BDCD
:101CE0000CED00E000E400E080E100E00249014387
:101CF000024A1160704700000000FA050CED00E098
:101D000008B54FF4A060FFF7F1FF1D208DF800002B
:101D100001208DF8010000208DF8020001208DF8CF
:101D200003006846FFF7AAFF27208DF80000002077
:101D30008DF801008DF8020001208DF8030068463F
:101D4000FFF79CFF08BD704701460020034A50681A
:101D500020F44040084350607047000000100240EB
:101D600029B1064A52690243044B5A6104E0034A0E
:101D700052698243014B5A617047000000100240D3
:101D800029B1064AD2690243044BDA6104E0034AEE
:101D9000D2698243014BDA617047000000100240B3
:101DA00029B1064A92690243044B9A6104E0034A4E
:101DB00092698243014B9A61704700000010024013
:101DC00030B500210022002400232D4D6D6805F060
:101DD0000C0121B1042905D0082923D105E0294DA2
:101DE000056022E0274D05601FE0254D6D6805F474
:101DF0007012234D6D6805F48034022505EB924284
:101E00001CB9214D554305600BE01D4D6D6805F46F
:101E100000351DB11C4D5543056002E0194D554379
:101E2000056002E0174D056000BF00BF144D6D68EE
:101E300005F0F0010909154D6B5C0568DD40456052
:101E40000F4D6D6805F4E061090A104D6B5C456843
:101E5000DD4085600A4D6D6805F46051C90A0B4D7F
:101E60006B5C4568DD40C560054D6D6805F440411B
:101E7000890B074D6B5CC568B5FBF3F5056130BD9B
:101E80000010024000127A0000093D00D20000203C
:101E9000E200002008B54FF40070ADF80000042007
:101EA0008DF8030069460248FFF71FFC08BD0000DB
:101EB000000C014008B54FF40070ADF80000102090
:101EC0008DF8030003208DF8020069460148FFF7F2
:101ED0000CFC08BD000C014021B1028842F0400218
:101EE000028004E002884FF6BF731A4002807047F8
:101EF0000246002013890B400BB1012000E00020B6
:101F000070470146888970478181704710B500226B
:101F1000028802F441520B884C8823438C88234367
:101F2000CC8823430C8923434C8923438C89234346
:101F3000CC8923431A430280838B4FF2FF742340E2
:101F400083830B8A038210BD2DE9F04107460D46BD
:101F5000164601210B48FFF753FC384600F02AF9DA
:101F60008046002405E0FF2000F024F92855601C7D
:101F7000C4B2B442F7DB01210248FFF743FC4046FC
:101F8000BDE8F081000C014070B50446012108480D
:101F9000FFF736FC204600F00DF9FF2000F00AF9AB
:101FA000054601210248FFF72DFC284670BD0000C0
:101FB000000C01402DE9F04107460C461546012171
:101FC0000B48FFF71DFC384600F0F4F88046002669
:101FD00005E014F8010B00F0EDF8701CC6B2AE423B
:101FE000F7DB01210248FFF70DFC4046BDE8F08118
:101FF000000C014070B505460C4601210748FFF76B
:10200000FFFB284600F0D6F80646204600F0D2F83E
:1020100001210248FFF7F6FB304670BD000C01407D
:10202000704710B500F002F810BD00000CB500209C
:10203000019000903348006840F4803031490860D6
:1020400000BF3048006800F4003000900198401C48
:102050000190009818B90198B0F5A06FF1D1294806
:10206000006800F4003010B10120009001E0002071
:1020700000900098012843D12348006840F01000E8
:10208000214908600846006820F0030008600846FF
:10209000006840F0020008601A484068194948602A
:1020A0000846406848600846406840F480604860E0
:1020B0000846406820F47C1048600846406840F4B8
:1020C000E81048600846006840F08070086000BF73
:1020D0000C48006800F000700028F9D009484068FA
:1020E00020F00300074948600846406840F00200BD
:1020F000486000BF0348406800F00C000828F9D190
:102100000CBD0000001002400020024000B587B066
:1021100001210420FFF744FE01210820FFF740FEC3
:10212000012141F20100FFF73BFEE020ADF818006D
:1021300018208DF81B0003208DF81A0006A91A48F4
:10214000FFF7D3FA0120ADF8180010208DF81B001E
:1021500003208DF81A0006A91448FFF7C6FA0020DC
:10216000ADF804004FF48270ADF806000020ADF821
:102170000800ADF80A00ADF80C004FF40070ADF89F
:102180000E001020ADF810000020ADF8120007205E
:10219000ADF8140001A90648FFF7B8FE0121044874
:1021A000FFF79AFE07B000BD00080140000C014097
:1021B0000030014010B5044600BF02210A48FFF775
:1021C00097FE0028F9D021460748FFF79DFE00BF83
:1021D00001210548FFF78CFE0028F9D00248FFF7DF
:1021E00090FEC0B210BD00000030014004480068FD
:1021F00020B103480068401E014908607047000094
:102200001400002010B51348006840F00100114987
:10221000086008464068104908400E494860084672
:1022200000680E4908400B4908600846006820F421
:10223000802008600846406820F4FE0048604FF4A3
:102240001F008860FFF7EDFE4FF000600449086052
:1022500010BD0000001002400000FFF8FFFFF6FE76
:1022600008ED00E01CB52D48008800F001000028B2
:102270004DD02B480068401C29490860294805F0CA
:10228000FDFA03F051FD02F037FE2749274802F01E
:102290001DFE25490C31254802F06CFF02F07EFD41
:1022A00021482349426A234801F064FB1E49183142
:1022B0001F4802F05DFD1C481F49826A1D4801F05D
:1022C00059FB02F0B7FF1848006A1749C969164C54
:1022D000CDE90010A36962692169E06803F000FAA2
:1022E000FFF7B4FB02F028FC00F0E8FF01F04CF926
:1022F00001F05EF803F02EF801F064FAFFF7BCF885
:1023000001F0B8FFFEF78EF80C4805F0B7FA034865
:10231000008820F00100014908801CBD1004004025
:1023200020000020E80000206801002014010020A7
:1023300020010020080100202C010020F8000020CE
:1023400021B1028842F08002028004E002884FF648
:102350007F731A4002807047CA430282704721B1DE
:10236000028842F00102028004E002884FF6FE7308
:102370001A400280704731B1B0F8442042F4004264
:10238000A0F8442005E0B0F84420C2F30E02A0F803
:10239000442070471AB183890B43838102E083890B
:1023A0008B4383817047000070B500240022002316
:1023B000058C4FF6FE7635400584028C8388048BAD
:1023C0004FF68F752C40B51E2C400D882C43751E82
:1023D0002A400D892A434D882A43144DA8420BD028
:1023E000134DA84208D0134DA84205D0124DA84263
:1023F00002D0124DA84213D14FF6F7752A404D89ED
:102400002A434FF6FB752A408D882A434FF6FF6515
:102410002B404FF6FF552B408D892B43CD892B4305
:1024200083800483CD888586028470BD002C0140A2
:102430000034014000400140004401400048014098
:102440000A460021018B4FF6F773194011430183AF
:102450007047000070B5002400220023058C4FF661
:10246000EF7635400584028C8388048B48F6FF752F
:102470002C404FF6FF452C400D884FF6FF7606EABC
:1024800005252C434FF6DF752A400D8906EA051510
:102490002A434D8806EA05152A43154DA84202D065
:1024A000144DA8421DD14FF67F752A404D894FF635
:1024B000FF7606EA05152A434FF6BF752A408D8838
:1024C00006EA05152A434FF6FF352B404FF2FF75FC
:1024D0002B408D8906EA85052B43CD8906EA8505C3
:1024E0002B4383800483CD880587028470BD000060
:1024F000002C0140003401400A460021018B4FF2BC
:10250000FF7319404FF6FF7303EA02231943018357
:102510007047000070B5002400220023058C4FF6A0
:10252000FF6635400584028C8388848B4FF68F7557
:102530002C404FF6FC752C400D882C434FF6FF5570
:102540002A400D894FF6FF7606EA05252A434D8875
:1025500006EA05252A43154DA84202D0144DA8428B
:102560001DD14FF2FF752A404D894FF6FF7606EADE
:1025700005252A434FF6FF352A408D8806EA0525B2
:102580002A434EF6FF752B404DF6FF752B408D8983
:1025900006EA05152B43CD8906EA05152B438380F2
:1025A0008483CD888587028470BD0000002C0140A3
:1025B000003401400A460021818B4FF6F773194021
:1025C000114381837047000070B50022002300246E
:1025D000058C4EF6FF7635400584038C8488828B0B
:1025E00048F6FF752A404FF6FF452A400D884FF602
:1025F000FF7606EA05252A434DF6FF752B400D8927
:1026000006EA05352B434D8806EA05352B430B4D6D
:10261000A84202D00A4DA84208D14BF6FF752C40C3
:102620008D894FF6FF7606EA85152C4384808283D8
:10263000CD88A0F84050038470BD0000002C0140FC
:10264000003401400A460021818B4FF2FF7319408C
:102650004FF6FF7303EA022319438183704700009A
:10266000002202881D4B98420ED01D4B98420BD081
:10267000B0F1804F08D01B4B984205D01A4B9842BE
:1026800002D01A4B984204D14FF68F731A404B88F0
:102690001A43174B984207D0164B984204D04FF676
:1026A000FF431A40CB881A4302808B8883850B88AE
:1026B00003850A4B98420BD0094B984208D00E4B29
:1026C000984205D00D4B984202D00D4B984201D153
:1026D0000B7A03860123838270470000002C01409F
:1026E000003401400004004000080040000C00409D
:1026F0000010004000140040004001400044014030
:1027000000480140F0B58BB007460C4615461E4602
:1027100001210846FFF724FB3846FEF7E7FD009449
:1027200001951020029003960020049080200590CF
:1027300000200690079008904FF440500990002028
:102740000A9069463846FEF777FE0BB0F0BD0000F0
:1027500070B504460D462B46224607490748FFF749
:10276000D1FF012280210448001F00F03EF8012122
:102770000248FEF7AFFD70BD0444004080000240F7
:1027800010B540F22551094800F038F838B1074833
:1027900000F0F0F806498872887A02F07BFA40F27D
:1027A0002551024800F006F810BD00000048004026
:1027B0007C0A002010B50022002340F66A14A142D2
:1027C00000D100BF0A1201249440A3B2DC4304806C
:1027D00010BD21B1828942F40052828104E08289D5
:1027E0004DF6FF731A40828170471AB1838A0B43FA
:1027F000838202E0838A8B438382704770B50246EE
:10280000002400230025002040F66A16B14200D1C2
:1028100000BFC1F3421501F01F03012606FA03F3BE
:10282000012D02D19689334006E0022D02D1168A8D
:10283000334001E0968A33400C12012606FA04F474
:102840001688344013B10CB1012000E0002070BDA7
:10285000F0B50346002400260025002040F66A1744
:10286000B94200D100BF1846C1F3421401F01F065F
:10287000012707FA06F5012C01D10C3004E0022CE7
:1028800001D1103000E014301AB107682F430760FF
:1028900002E00768AF430760F0BD00002DE9F04794
:1028A00086B005460E460024A24600BFA14600277A
:1028B000B08900B100BF2F462C8A4CF6FF7004404F
:1028C000F08804432C82AC894EF6F3100440B088A3
:1028D00031890843718908430443AC81AC8A4FF6BF
:1028E000FF400440B0890443AC8201A8FFF768FAB6
:1028F0001F48874202D1DDF810A001E0DDF80CA0EE
:10290000A88900F4004040B10AEBCA0000EB0A10AD
:1029100031684900B0FBF1F807E00AEBCA0000EBB0
:102920000A1031688900B0FBF1F86420B8FBF0F0C0
:1029300004012009642101FB1089A88900F40040EA
:1029400040B1322000EBC900B0FBF1F000F007000D
:10295000044308E0322000EB09106421B0FBF1F0E1
:1029600000F00F0004432C8106B0BDE8F0870000A2
:102970000038014001468888C0F30800704700BF56
:10298000FEE7490050EAC12018BF04204A0D18BFD5
:1029900040F0010040F2FF72B2EB515F08BF40F01F
:1029A0000200012808BF052070474100080218BF37
:1029B00004200A0E18BF40F001004FF07F4232EAB7
:1029C000010108BF40F00200012808BF0520704740
:1029D0002DE9F74F144694B00021C4E9021115996E
:1029E000079121F00045C9498D4206DC1599C4E9DB
:1029F000000117B00020BDE8F08FC549DFF814A32F
:102A0000A9423CDD0799C44E0029C44FC44A159918
:102A1000534619DD05F060FD554506D0C14AC24B4D
:102A200005F05AFDC4E900010AE04FF0D352BE4B55
:102A300005F052FD32463B4605F04EFDC4E900016B
:102A400017B00120BDE8F08F05F0ACF8554506D071
:102A5000B44AB54B05F0A6F8C4E900010AE04FF00E
:102A6000D352B14B05F09EF832463B4605F09AF83A
:102A7000C4E9000117B04FF0FF30BDE8F08FAB495B
:102A8000A942159978DB21F0004183468846A84A7F
:102A9000A84B05F031FB0022A74B05F083F805F0A9
:102AA000D1FA099005F0FDFA06460F469C4A5346B6
:102AB00005F022FB43465A4605F01CFC80468A4638
:102AC000984A994B3046394605F016FB2A0D0125E8
:102AD0000B924246534605F00DFC032DC4E900015C
:102AE00039D00B98C1F30A51401A05EB4511113941
:102AF000814230DA9148C346784400EB0510CDF8A6
:102B00000CA00C90D0E900233046394605F0F4FAC9
:102B100002460B46049106905846039905F0DCFCEA
:102B200080468A4602460B465846039905F0D4FC77
:102B3000049B069A05F0D0FC83460C980391394615
:102B4000D0E90223304605F0D7FA5A46039B05F038
:102B5000C3FC6D1CBDE707980028A2BF099817B0F9
:102B6000BDE8F08F616881F000416160099817B09D
:102B70004042BDE8F08FFFE784461598C1F313018A
:102B8000C0F30A50A0F2F5304FEA601800F01F06BB
:102B9000C6F12000139000200690079041F4801E9B
:102BA00005206D4676B1664A08EB00017A4452F87A
:102BB000213002EB8101B3404A68139922FA01F1F6
:102BC000194305E05F4908EB0002794451F82210EF
:102BD000A1FB0E27A1FB0C131A449A4234BF012318
:102BE000002303EB070A05EB8003D3E901B70F4489
:102BF0008F4234BF0121002193448B4411B193458E
:102C000002D903E0934501D2012100E00021C3E98C
:102C100001B7514445F82010011EA0F10100C1DCAC
:102C20000298059F00F10050800F12900298DDE994
:102C30000356800005F035FA834628460D9105F0CD
:102C400047FA6FF01D0206F03CF9CDE90E0130465F
:102C500005F03EFA6FF03D0206F033F980468A46F1
:102C6000384605F035FA6FF05D0206F02AF907469E
:102C700042465346119104F095FFDDE90E2304F01E
:102C800091FF5A460D9B04F08DFF00250E465A46D3
:102C900028460D9B05F020FCDDE90E2305F01CFC09
:102CA0004246534605F018FC3A46119B05F022FBBC
:102CB000DFF898A0244A534605F01EFA07468846D6
:102CC000234A244B3146284605F016FA3A46434635
:102CD00004F068FF074688464FF0A8425346314645
:102CE000284605F009FA3A46434604F05BFF159A78
:102CF00012F0004F04D0129A81F000415242129219
:102D0000C4E90001129817B0BDE8F08FFB21E93F3C
:102D10007CD90240FB21F93F7370032E8A19A33B33
:102D2000000040543163621A61B4D03DFB21394147
:102D300083C8C96D305FE43F0000E03F2C680000AD
:102D4000A86700008A670000182D4454FB21F93D54
:102D50003326A611460B113C2DE9FF4D21F000480A
:102D600007460C46B8F1795F08DA05F06BF90028E0
:102D700001BF0020324904B0BDE8F08D3A46234639
:102D80001046194605F0B8F9054602462D480E468C
:102D90000B460621784400F05DF82A46334605F0DC
:102DA000ABF9DDE9022382468B463846214605F021
:102DB000A3F904460F4652465B462846314605F0C5
:102DC0009BF922463B4605F087FB07468A464FF0B3
:102DD000FF322846314606F074F81B4A90450ADA5D
:102DE0003A46534605F078FB04B00022BDE8F04DAA
:102DF000134B05F07FBA154A4245A8BFA8F5001548
:102E00004FF00004B8BF124D22462B4605F064FB7C
:102E10000646884622462B460020094905F05CFB01
:102E200004460D463A4653463046414605F054FBAB
:102E300004B022462B46BDE8F04D05F05BBA000019
:102E40000000F03F586500003333D33F0000E93FF6
:102E50000000D23F2DE9F0414F1E00EBC7010446B0
:102E6000D1E9000115461E4637F006020DD02A466C
:102E7000334605F041F97F1E04EBC703D3E9002375
:102E800004F090FE37F00602F1D1022F25D0042F76
:102E900013D0062F18BFBDE8F0812A46334605F04F
:102EA0002BF9D4E90A2304F07DFE2A46334605F0C7
:102EB00023F9D4E9082304F075FE2A46334605F0C9
:102EC0001BF9D4E9062304F06DFE2A46334605F0CB
:102ED00013F9D4E9042304F065FE2A46334605F0CD
:102EE0000BF9D4E9022304F05DFE2A46334605F0CF
:102EF00003F9D4E90023BDE8F04104F053BE00001B
:102F00002DE9FF4D054621F0004084B00C46B0F19C
:102F1000795F0BDA2846FFF734FD042808BF00F07C
:102F2000AFF9284608B02146BDE8F08D2A460B4689
:102F3000104605F0E1F806460F462A46234605F0FE
:102F4000DBF8804626488A4632463B4605217844CF
:102F5000FFF780FF83461098029160B3214A224B0D
:102F60004046514605F0C8F8CDE900015A464046B2
:102F70005146029B05F0C0F882468846DDE906010D
:102F80004FF0FF3205F09DFF5246434605F0A4FA8C
:102F900032463B4605F0B0F8DDE9062305F09CFA21
:102FA000DDE9002305F098FA08B02A462346BDE87B
:102FB000F04D05F09FB90B465A463046394605F0AC
:102FC0009BF8084A084B04F0EDFD4246534605F0D5
:102FD00093F808B02A462346BDE8F04D04F0E2BD60
:102FE0009E640000495555555555C5BF2DE9F04D16
:102FF00004468CB0904821F00047164698460D468E
:103000000991874206DA2046294605F01BF8002878
:1030100000F0AE808948B8421CDC09980028BCBF8B
:1030200085F0004588F00048854A864B20462946B1
:1030300005F060F904460D4632464346824883490E
:1030400005F04AFA22462B4604F0ACFD0026044661
:103050000D46B04622462B461046194605F04CF860
:103060008B46824602460B4605F046F8024608901B
:1030700077480B46009106217844FFF7EBFECDE937
:103080000310744806217844009B089AFFF7E2FE7B
:1030900052465B4605F030F8CDE9051052465B46D6
:1030A0002046294605F028F807910090DDE9031035
:1030B000DDE9053204F076FD079B009A05F01CF867
:1030C0003246434604F06EFD52465B4605F014F866
:1030D0003246434604F066FD80460E465E4A5F4B2C
:1030E0000799009805F008F84246334604F05AFD67
:1030F00082468B4622462B4604F054FD80464F48BC
:103100000E46B84214985BDC04F0CBFF07464246FB
:103110003346059104F046FDCDE9011042463346A1
:103120001046194604F0E8FFDDE9013204F0F6FD2F
:1031300052465B4605F0D0F922462B4605F0DAF8F8
:10314000012205F0BEFE3A46059B05F0D3F8044681
:103150000D460998022101EAA070C0F1010004F0B7
:10316000A0FF0CB022462B46BDE8F04D04F0C4BFD2
:103170001498401C384320430BD01498012812D0D7
:103180000CB022462B46BDE8F04D0020344904F037
:10319000C5BD0CB025F000432246BDE8F04D00202F
:1031A000304904F0BBBD20462946FFF7EAFB04285E
:1031B00008BF00F065F820460CB02946BDE8F08D48
:1031C000012802BF40460CB0BDE8F08D00270B4639
:1031D0003A462046294605F08DF852465B4605F0F2
:1031E00089F804460D464246334600201C4904F047
:1031F00095FD83463A4688463346104604F07CFFE8
:103200000022184B04F0CEFC06468A4622462B4686
:103210003846414604F070FF3246534604F0C2FC83
:103220005A46434604F068FF0CB03A464346BDE8B0
:10323000F04D04F0B7BC00000000303E2894E53F9C
:10324000182D4454FB21E93F075C143326A6813C2A
:103250009C630000BE630000635555555555D53F2E
:103260000000F0BF0000F03F012205F02ABE04F08C
:1032700099BC002213461046114604F04FBD0000D1
:10328000024A0020110705F01CBE000001FDFFFFEF
:1032900000214FF07E5005F0A9BA05F033BA0021A5
:1032A000084605F0A3BA61214FF0E04005F037BEB3
:1032B0006FF05E01080705F032BE0000344890F858
:1032C0002400C0F3001090B93248007820F00F00BD
:1032D000401C304908702E4881682F4841632C48B3
:1032E00040682D4988602A4800882C494880284831
:1032F00090F82400C0F3001008B32948007858B9AA
:1033000023480088254908802648816E2248C0F855
:1033100068110120224908702148007801280ED147
:103320001C48007820F00F00801C1A4908701848CB
:1033300081681948416316484068174988601448F5
:1033400090F824000121B1EBD01F20D1104890F853
:103350002400C0F30010D0B11348007860B91348BE
:10336000416A0D48C0F8EC111048816A0A48C0F85B
:10337000701201200C4908700B480078012806D112
:103380000448007820F00F00C01C02490870704704
:10339000E0030020AC000020CC040020A8000020A6
:1033A000B600002098070020B70000207C0A00200B
:1033B0002DE9F0416C48007800F0010000287CD035
:1033C0006A4800880A287ADD6949488805F082FB46
:1033D00007466848D0F8A810384605F093F9064625
:1033E0006448D0F8D410304605F0C4FC0546614866
:1033F000D0F80011284605F085F9044605F032FBA7
:103400005D4908805A49488805F064FB07465948D9
:10341000D0F8A810384605F075F906465548D0F89A
:10342000D410304605F06EF905465248D0F8001128
:10343000284605F09FFC044605F014FB4F49088020
:103440004B49488805F046FB07464A48D0F8A81083
:10345000384605F08FFC06464648D0F8D410304672
:1034600005F050F905464348D0F80011284605F00C
:1034700049F9044605F0F6FA414908803C49488874
:1034800005F028FB07463B48D0F8A810384605F061
:1034900071FC06463748D0F8D410304605F06AFC77
:1034A00005463448D0F80011284605F063FC044670
:1034B00005F0D8FA3349088049E028E0FFE72B48B7
:1034C00000882D490880294800882C490880274811
:1034D00000882B490880254800882A49088025480B
:1034E00001F04EF82348843001F04AF821482C308E
:1034F00001F046F81F48B03001F042F81D4858303E
:1035000001F03EF81B48DC3001F03AF81FE00020E3
:103510001949088019490880194908801949088003
:10352000144801F02DF81348843001F029F81148AF
:103530002C3001F025F80F48B03001F021F80D488B
:10354000583001F01DF80B48DC3001F019F80D4C33
:1035500023880B4C2288094C2188074C208803F0D3
:1035600077F9BDE8F081000060000020E003002052
:10357000A8000020CC040020AE000020B0000020F5
:10358000B2000020B400002010B51148007800F00F
:103590000F00012804D0022807D0032815D10BE022
:1035A00000F0C6FA01F014FF10E001F037FF00F060
:1035B000BFFA01F00DFF09E001F030FF01F0AEF8B5
:1035C00000F0B6FA01F004FF00E000BF00BF10BD3C
:1035D000AC0000200A6802604A6842608A68826023
:1035E0007047000070B586B0044670480079002826
:1035F0007ED06E4880686E49884237D26D49206817
:1036000005F0B0FA06464FF08B4105F0EFF805469D
:1036100066488169284605F075F8644988616549FE
:10362000606805F09FFA06464FF08B4105F0DEF822
:1036300005465E48C169284605F064F85B49C861E3
:103640005C49A06805F08EFA06464FF08B4105F004
:10365000CDF805465548016A284605F053F8534908
:10366000086208468068401C886037E000204F49A7
:1036700088608869504905F0B9F84C49097901EB2F
:1036800041024A49243141F822002439C8694A4993
:1036900005F0ACF84549097901EB41024349243171
:1036A00001EB820148604149086A434905F09EF8F0
:1036B0003E49097901EB41023C49243101EB820189
:1036C000886000213948183003F0E4FB01213748B5
:1036D00002790F3081540020344908713348007C4E
:1036E0003249497C08403149897C08402F4900E033
:1036F00059E0C97C08402D49097D08402B49497D86
:10370000084000284FD001202849887500250FE087
:103710006A1C02EB4203254A243202EB830105EBCB
:103720004502264B03EB8200FFF754FF681CC5B22D
:10373000062DEDDB1D4A9C32A2F118011F48FDF752
:1037400095FC1A4948730846407B01281ED11C4845
:10375000406A1B49096A1A4AD269144BD3F8A4304B
:10376000CDE90232CDE904101048D0F8A0000F498D
:10377000D1F89C10CDE900100C48D0F88C30D0F86E
:103780008820D0F88410242001F052F9012005E0AF
:10379000002206490F310A54411CC8B20728F7DB42
:1037A00000200249087306B070BD000058020020D6
:1037B000F04902000AE81C41007C12481C0300206A
:1037C0002402002010B5674890F82400C0F381005F
:1037D000012810D163494868634905F08FFA0AD877
:1037E00060498868614905F089F904D86048008813
:1037F000401C5F4908805B4890F82400C0F38100BA
:1038000001282FD157494868574905F077FA29D838
:1038100054498868554905F071F923D854480088FF
:10382000B0F5167F1EDB0020514908800120087387
:10383000887301240AE004EB44024D49243101EB72
:103840008200002103F026FB601CC4B2072CF2DBCF
:10385000012005E0002246490F310A54411CC8B23C
:103860000728F7DB4248007B01287AD13D4890F8D1
:103870002400C0F38100002873D13A49C8683B494D
:1038800005F03CF90BD83A484088401C384948803C
:1038900008464088B0F5967F01D101200871314972
:1038A0008868324905F02AF90BD831484088401C15
:1038B0002F49488008464088B0F5967F01D1022004
:1038C000087128498868284905F018FA0BD8284853
:1038D0004088401C2649488008464088B0F5967FBD
:1038E00001D1032008711F494868204905F006F9F5
:1038F0000BD81F484088401C1D4948800846408816
:10390000B0F5967F01D10420087116494868164920
:1039100005F0F4F90BD816484088401C144948803B
:1039200008464088B0F5967F01D1052008710D4901
:10393000C8680D4905F0E2F90BD80D484088401CD5
:103940000B49488008464088B0F5967F01D1062093
:10395000087107484088B0F5967F02DD00200449D1
:10396000488010BDE00300200000C8410000C8C12D
:10397000580200202DE9F04105460C461646216804
:10398000286805F0F7F98046314605F0EBF8074660
:10399000216804F0B7FE20606168686805F0EAF904
:1039A0008046314605F0DEF80746616804F0AAFE5D
:1039B0006060A168A86805F0DDF98046314605F031
:1039C000D1F80746A16804F09DFEA060BDE8F08133
:1039D00000B585B001214802FEF7E2F901208DF81B
:1039E0000500002003904FF460200290002000901A
:1039F00001208DF8100000208DF80400694616485B
:103A0000FCF776FC01211448FCF751FC0121124817
:103A1000FCF758FC4FF44040FEF796F907230122CB
:103A200011460D48FCF78CFC0B48FCF7E5FC00BF89
:103A30000948FCF752FC0028FAD10748FCF7ECFCD7
:103A400000BF0548FCF749FC0028FAD101210248D3
:103A5000FCF7D7FC05B000BD0024014008B50121EA
:103A60000420FEF79DF90220ADF8000000208DF83B
:103A7000030069460148FDF738FE08BD0008014013
:103A800010B5FFF7EBFFFFF7A3FF00F0FFFD10BD40
:103A900000B50021234802F041FB012121482C30D0
:103AA00002F03CFB02211F48583002F037FB032193
:103AB0001C48843002F032FB04211A48B03002F076
:103AC0002DFB05211748DC3002F028FB06211648A3
:103AD00002F024FB072114482C3002F01FFB0821C0
:103AE0001148583002F01AFB09210F48843002F0C7
:103AF00015FB0A210C48B03002F010FB0B210A48DC
:103B0000DC3002F00BFB0C21084802F007FB0D2112
:103B100006482C3002F002FB0E210448583002F017
:103B2000FDFA00BDCC040020D4050020DC060020F6
:103B300010B52048816A204881632C3002F09CFA3D
:103B40001C48406A1C49C860084602F095FA1B48A8
:103B50000088B0F5967F05DA18480088401C1749A0
:103B6000088026E01649C868002104F001FF15D13D
:103B70001149086E002104F0FBFE03D10D48C16A13
:103B80000D4801660B48C16A0B484166583002F087
:103B900073FA0948C16FC0F8E4100AE00021064832
:103BA00001660749C868074904F0DCFF0249C1F80B
:103BB000E40010BD50040020CC040020BA00002016
:103BC000E00300200000A0402DE9F04D8D4F21F0D2
:103BD000004A86B005460C46BA452ADBAAEB070028
:103BE00028430AD08848824501DC1AD1CDB106B0FD
:103BF0002846BDE8F04DFFF737BB844A844B284682
:103C000004F07AFA07460E46824A834B284621463C
:103C100004F072FA06B03A463346BDE8F04D03F0C0
:103C2000C1BF0120FCF7FFFA06B0BDE8F04DFFF779
:103C300020BB7A48824542DABAF1795F0BDA28462E
:103C4000FEF79FFE042808BFFFF71AFB284606B0C0
:103C50002146BDE8F08D2A460B46104604F04CFA8A
:103C6000834602466E480E460B4606217844FFF70F
:103C7000F1F85A46334604F03FFA804669488A46CE
:103C80005A46334604217844FFF7E4F85A4633464F
:103C900004F032FA00223B4603F084FF02460B4652
:103CA0004046514604F03AF82A46234604F024FAE6
:103CB00006B02A462346BDE8F04D03F073BF284600
:103CC00024F0004100223D463B4604F013FB4FF038
:103CD000FF3205F0F6F80646024653480F460B46FB
:103CE00006217844FFF7B6F832463B4604F004FA62
:103CF000CDE900014D4832463B4604217844FFF7A8
:103D0000A9F832463B4604F0F7F900222B4603F0AF
:103D100049FF834602913046394603F036FD80461E
:103D200043480D46504517DCDDE900015A46029B29
:103D300003F0F4FF42462B4604F0DEF942462B46E0
:103D400003F030FF012205F0BCF8304A304B04F09C
:103D5000C3FB304A304B4CE04FF0000A52460B4652
:103D6000404603F01FFFCDE9031052462B46104694
:103D7000194604F0C1F932463B4604F0BBFADDE9CE
:103D8000033203F0CBFF06460F46DDE900015A4639
:103D9000029B03F0C3FF834600910122304639465F
:103DA00005F08FF8194A1A4B04F0A4FA06460F469C
:103DB00001224046294605F084F85A46009B04F04B
:103DC0009BF932463B4604F087FB06460F4601222C
:103DD0005046294605F075F80E4DDFF858802A4602
:103DE000434604F087FA32463B4604F083FA2A46FB
:103DF000434604F07FFA002CD8BF81F0004106B0A2
:103E0000BDE8F08D0000F03F0000F07F075C143348
:103E100026A6913C182D4454FB21F93F0000E03FB9
:103E2000585400006E540000E2530000F8530000A4
:103E30003333EF3FFB21E93F2DE9F84F04460D46B0
:103E400021F0004000917349814211DC724988429F
:103E500001DC06D12CB120462946BDE8F84FFFF71A
:103E600003BA6E48002DCCBF6D496E49BDE8F88F8E
:103E70006D49814211DD6D498142D8BF4FF0FF3657
:103E80006DDD20462946FEF77CFD042808BFFFF7BC
:103E9000F7F920462946BDE8F88F6549654F25F0BA
:103EA0000045814233DD6449814219DD00263246F6
:103EB0004FF080432046294603F074FE80468A4630
:103EC00001222046294604F0FCFF00223B4604F074
:103ED00003FB4246534603F021FF04460D463EE0F5
:103EE00001260022BA463B462046294603F05AFEE8
:103EF00080460F46002253462046294604F0ECFA3D
:103F000042463B4603F00AFF04460D4627E04B4974
:103F100081421BDDDFF828A10226002253462046FD
:103F2000294604F0E9F800223B4603F03BFE8046B8
:103F30000F46002253462046294604F0CDFA424659
:103F40003B4603F0EBFE04460D4608E003262246FE
:103F50002B4600203B4903F0E1FE04460D46224675
:103F60002B461046194604F0C7F88B468246024697
:103F70000B4604F0C1F807460246334888460B4614
:103F800006217844FEF766FF52465B4604F0B4F81B
:103F900082462E488B463A46434605217844FEF732
:103FA00059FF3A46434604F0A7F802460B46002E56
:103FB000504659460CDA03F0F5FD22462B4604F034
:103FC0009BF801B022462B46BDE8F04F04F092B9B1
:103FD00003F0E8FD22462B4604F08EF81C4A7A4492
:103FE00002EBC603D3E9002304F076FA22462B46FF
:103FF00004F072FA174A7A4402EBC603D3E90023AD
:1040000004F078F9009A002AB8BF81F00041BDE8B9
:10401000F88F0000000010440000F07F182D445479
:10402000FB21F93FFB21F9BF0000DC3F0000203EEF
:104030000000F33F0000F03F0000E63F0080034037
:104040000000F83F0000F0BF3A530000F8520000B3
:10405000965200005E5200002DE9F04D9446CCF1DE
:10406000000423F000464CEA0404594F46EAD47495
:104070009A46884621F00042BC4206D8454240EAB2
:10408000050442EAD474BC4204D9BDE8F04D62464E
:10409000FFF7EDB8AAF14055A5F17F6555EA0C048C
:1040A0000BD0022404EAAA744A4DDFF82CE144EA5A
:1040B000D87452EA000B04D00CE0BDE8F04DFFF7D5
:1040C000BBBE002C14BF012CBDE8F08D022C30D0FB
:1040D000032C32D056EA0C0B0AD0BE4220D1BA4291
:1040E00009D126F0804622F080423346114617E07F
:1040F00000291ADB25E0DFF8E4B0FB44002C04BF04
:10410000DBE90001BDE8F08D012C02BFDBE9000115
:1041100081F00041BDE8F08D022C0AD0032C0CD0B8
:10412000BA4212D1B8F1000F0BDA2A482C49BDE887
:10413000F08D28462B49BDE8F08D28467146BDE834
:10414000F08D24482849BDE8F08D921B12153C2AB9
:10415000C4BF204F244E10DCBAF1000FBEBF12F1D5
:104160003C0F00273E4608DB624603F0D7FD21F0F6
:104170000041FFF761FE07460E4694B1012C08BFCF
:1041800086F000460DD0194A194B022C38463146AC
:1041900015D004F0A1F92A46BDE8F04D114B04F00A
:1041A0009BB9002213463846314603F00FFF04BF87
:1041B0000220FCF738F838463146BDE8F08D04F0AF
:1041C0008BF92A46BDE8F04D064B04F093B8000089
:1041D0000000F07F182D4454FB2109C0225200003A
:1041E000FB21F9BFFB210940FB21F93F075C143398
:1041F00026A6A13CF0B504460D46164600271B48EE
:1042000000880F2804DA19480088401C17490880E4
:10421000164800880F2827D115480088322804DA6C
:1042200013480088401C1249088011480088322831
:1042300003D100200E490880012700200B49088087
:10424000012C02D1012001F025FA012D02D102201A
:1042500001F020FA012E02D1032001F01BFA012BFC
:1042600002D1042001F016FA3846F0BD18000020F3
:104270001A00002010B500249E480078C0F34000CA
:1042800078B101231A4619461846FFF7B3FF0446D2
:10429000012C05D19748007820F00200954908705C
:1042A00027E194480078C0F3800078B101231A46D2
:1042B00019461846FFF79EFF0446012CF0D18D48A1
:1042C000007820F004008B49087012E18A48807B56
:1042D00001280CD10123002219461046FFF78AFF5E
:1042E0000446012CDCD100208349887301E1824817
:1042F0000079012807D10123002211461046FFF75B
:1043000079FF0446F5E07C480079022807D10023B4
:10431000012211461846FFF76DFF0446E9E0764892
:104320000079032807D10123002211461846FFF720
:1043300061FF0446DDE070480079042807D10023BE
:104340001A4601210846FFF755FF0446D1E06A48A6
:104350000079052807D101231A4600210846FFF7F6
:1043600049FF0446C5E064480079062807D10023C8
:10437000012219461846FFF73DFF0446B9E05E48A2
:10438000807D01280CD101231A4619461846FFF7F3
:1043900031FF0446012C98D1002057498875A8E0C8
:1043A0005648407901280CD10023012219461046B5
:1043B000FFF720FF0446012C02D100204F4948712D
:1043C00097E04F4890F82500C0F38000B0B14D4809
:1043D0000078401C4B490870084600787D2806DAB2
:1043E0000023012219461046FFF704FF81E0012354
:1043F000002219461046FFF7FDFE7AE04248007A97
:10440000012806D101231A4619461846FFF7F2FE85
:104410006FE03B4890F82400C0F34110012816D10A
:104420003448007800F0010088B100231A460121C9
:104430000846FFF7DFFE0446012C5AD1304890F8B9
:10444000240020F060002E4981F8240051E02C481F
:1044500090F82400C0F34110022816D125480078B6
:1044600000F0010088B101231A4600210846FFF739
:10447000C1FE0446012C3CD1214890F8240020F0D4
:1044800060001F4981F8240033E01D4890F82500A2
:1044900000F00300012811D1002301221146184623
:1044A000FFF7A8FE0446012C23D1154890F82500FB
:1044B00020F00300124981F825001AE0104890F816
:1044C000250000F00300022811D10123002211462B
:1044D0001846FFF78FFE0446012C0AD1084890F8D1
:1044E000250020F00300064981F8250001E001F0D5
:1044F00093F810BD60000020580200202402002024
:10450000E00300201C000020600700202DE9FE4F82
:1045100006460C461546A660E168A86804F022FB32
:1045200002902169686804F01DFB82462168686971
:1045300004F018FB01906168286904F013FB0090F7
:10454000A168E86804F00EFB8346009904F0DAF8ED
:104550008146019904F0D6F88046514604F00AFCE1
:104560000746029904F006FC606160682060A0685C
:1045700060602069E060616921616069BDE8FE8F6B
:104580000021C1617047000000B5244B21F00042BA
:1045900087B09A42DCBF0022134629DD204B9A42A5
:1045A00008D140B94FF00100FBF73DFEFEF761FE78
:1045B00007B000BD03DBFEF757FE07B000BD02AA3F
:1045C000FEF706FA10F0030104BF0DF1080C9CE899
:1045D0000F000DD0012001290ED0022914D00DF1B9
:1045E000080C00909CE80F00FEF78AFC07B000BDA5
:1045F000FEF7B2FB07B000BD0DF1080C00909CE87F
:104600000F00FEF77DFC05E00DF1080C9CE80F00A3
:10461000FEF7A2FB07B081F0004100BDFB21E93F9E
:104620000000F07F00B970474FF47A7141430D4AA2
:10463000116000214FF0E02291611146096941F0BB
:104640000101116100BF074909680029FBD14FF042
:10465000E021096921F001014FF0E022116100BF62
:10466000E1E700001400002070B505460E46144630
:104670003146284604F042FB05D22146284604F084
:104680003DFA00D20025284670BD000000B58BB071
:1046900001210846FDF764FB0120039000200290F1
:1046A0000A900E4801904FF480600790802005909A
:1046B000202008900A480090801506900020049061
:1046C0004FF48050099069460648FCF7B5FE012179
:1046D0000448FCF7FFFD0BB000BD0000BC0000204B
:1046E0004C2401400800024010B50A484088A0F55B
:1046F000AF70C82148434FF4AF7190FBF1F42046EE
:1047000004F0D0F90449C1F83C0100210248C0F886
:10471000681110BDE0030020CC04002010B5504902
:104720004868002104F024F964D14D4988680021CB
:1047300004F01EF95ED14B49D1F8EC01002104F0E0
:1047400017F906D14749D1F87002002104F010F999
:1047500002D04548007880B9012043490870434899
:10476000406A80F000413F48C0F8EC113F48806A41
:1047700080F000413B48C0F870123C48406A80F02D
:1047800000413848C0F8F0113848806A80F0004194
:104790003448C0F8741200F5F27001F06DFC344832
:1047A00001F06AFC2F48D0F80812C0F8C011D0F808
:1047B0008C12C0F844122D48C06B80F0004129488B
:1047C000C0F8C4112948006C80F000412548C0F8A9
:1047D000481200F5DC7001F04FFC25482C3801F040
:1047E0004BFC2048D0F8DC114163D0F860021D4931
:1047F000886033E01A4988681E4904F0B3F9194902
:10480000C1F8C001164948681A4904F0ABF91549C6
:10481000C1F844021548C06B80F000411148C0F84F
:10482000C4111248006C80F000410E48C0F84812D4
:1048300000F5DC7001F020FC0D482C3801F01CFC68
:104840000848D0F8DC114163D0F86002054988605F
:1048500000210448C0F8EC11C0F8701210BD00002F
:10486000E0030020CC040020B80000207C0A0020D7
:10487000340700200000A0412DE9F04F89B0044624
:104880000F4690469946DDE912AB002600256748A1
:104890000444206838606068C8F80000A068C9F85F
:1048A0000000E068CAF800002069CBF800006169E8
:1048B00014980160A16915980160E169169801607A
:1048C000216A17980160FCF7B1FE00BF05E014F8FB
:1048D000010B0DF80600701C86B2242EF7DB9DF844
:1048E0000000FF280DD19DF80100FF2809D19DF897
:1048F0000200FF2805D19DF80300FF2801D145F0F3
:1049000001059DF80400FF280DD19DF80500FF2842
:1049100009D19DF80600FF2805D19DF80700FF2862
:1049200001D145F002059DF80800FF280DD19DF842
:104930000900FF2809D19DF80A00FF2805D19DF83C
:104940000B00FF2801D145F004059DF80C00FF285D
:104950000DD19DF80D00FF2809D19DF80E00FF280C
:1049600005D19DF80F00FF2801D145F008059DF8FD
:104970001000FF280DD19DF81100FF2809D19DF8E6
:104980001200FF2805D19DF81300FF2801D145F042
:1049900010059DF81400FF280DD19DF81500FF2883
:1049A00009D19DF81600FF2805D19DF81700FF28B2
:1049B00001D145F020059DF81800FF280DD19DF884
:1049C0001900FF2809D19DF81A00FF2805D19DF88C
:1049D0001B00FF2801D145F040059DF81C00FF2871
:1049E0000DD19DF81D00FF2809D19DF81E00FF285C
:1049F00005D19DF81F00FF2801D145F080059DF8E5
:104A00002000FF280DD19DF82100FF2809D19DF835
:104A10002200FF2805D19DF82300FF2801D145F48D
:104A20008075284609B0BDE8F08F000000F000084E
:104A30002DE9F04F89B004460D4616461F46DDE9C4
:104A400014ABDDE9128924216846FBF7BDFB009514
:104A500001960297CDF80C80CDF81090CDF814A0F7
:104A6000CDF818B01698079017980890FCF71EFE1E
:104A70003420FCF795FD2E48FCF798FD2D49087071
:104A80000846007804284DD1294AA0180099FCF75F
:104A9000D7FD28490870264A2244101D0199FCF7C9
:104AA000CFFD24490870224A224402F108000299ED
:104AB000FCF7C6FD1F4908701D4A224402F10C0094
:104AC0000399FCF7BDFD1B490870194A224402F105
:104AD00010000499FCF7B4FD16490870144A2244EA
:104AE00002F114000599FCF7ABFD12490870104A59
:104AF000224402F118000699FCF7A2FD0D49087046
:104B00000B4A224402F11C000799FCF799FD094960
:104B10000870074A224402F120000899FCF790FD32
:104B200004490870FCF782FD09B0BDE8F08F000071
:104B300000F00008C00000202DE9F0473E49B1F91F
:104B40000E0003F0AFFF04463B484169204603F0E6
:104B5000D9FD39494861B1F9100003F0A3FF0446BB
:104B600035488169204603F0CDFD334988613349DA
:104B7000886A334903F0F6FF824603F097FD064644
:104B800002F042FE044600222E4B03F0B5FA8046A6
:104B900002F0D6FF2849C8642849486A284903F02A
:104BA000E1FF824603F082FD804602F02DFE0646BC
:104BB0000022244B03F0A0FA044602F0C1FF1E4974
:104BC00008650A46D16C506904F0D4F804461E49C1
:104BD00003F0C8FF184948620A46116D906904F055
:104BE000C9F80446184903F0BDFF134988620A4614
:104BF000D169506A04F0BEF80446144903F0B2FFCC
:104C00000D4948630A46116A906A04F0B3F80446F5
:104C10000E4903F0A7FF084988630846406AC86147
:104C20000846816A016200F13C01826D343000F077
:104C30000FF8BDE8F08700007C0A00205004002037
:104C400035FA8E3C0024A3400AD7A33D0000F04172
:104C50002DE9F04105460C4616462168286804F007
:104C600089F88046314603F07DFF0746216803F04E
:104C700049FD20606168686804F07CF88046314630
:104C800003F070FF0746616803F03CFD6060BDE81B
:104C9000F081000010B50021344A127B22B1012AB4
:104CA00014D0022A5AD123E0FE280BD101222F4B27
:104CB0001A731A46D37AD27A521C2C4CE2722246CC
:104CC000D05402E00022294B1A734CE004280BD187
:104CD0000222264B1A731A46D37AD27A521C234CDC
:104CE000E2722246D05402E00022204B1A733AE0CE
:104CF0001E4AD37AD27A521C1C4CE2722246D054FD
:104D0000D27A092A29D1002223461A73DA721A4666
:104D10009278DB781A4423461B791A4423465B7940
:104D20001A44D1B2AA2818D1224692798A4214D1C3
:104D30002246D279302A10D12246D278120212B2FB
:104D400023469B781A432346DA811A465279120287
:104D500012B21B791A4323461A8204E00022034B45
:104D60001A73DA7200BF00BF10BD00007C0A002079
:104D700070B504460D464FF06651206803F0F2FE10
:104D800028604FF06651606803F0ECFE68604FF0F9
:104D90006651A06803F0E6FEA86070BD70B53B20C8
:104DA00000F084F800B2344908803D2000F07EF81D
:104DB00000B2314948803F2000F078F800B22E4917
:104DC00088802E49D1F8AC004FF08B4103F0CAFE29
:104DD00006462B4903F00AFD04462749B1F90000B5
:104DE00003F060FE06462548D0F8B810304603F0C0
:104DF000B9FE0546214603F0BDFF224908601F4960
:104E0000D1F8B0004FF08B4103F0ACFE06461C49D0
:104E100003F0ECFC04461849B1F9020003F042FE2D
:104E200006461648D0F8BC10304603F09BFE0546F7
:104E3000214603F09FFF134948601049D1F8B400A0
:104E40004FF08B4103F08EFE06460D4903F0CEFC79
:104E500004460949B1F9040003F024FE0646074858
:104E6000D0F8C010304603F07DFE0546214603F021
:104E700081FF0449886070BD240000205802002092
:104E80000AE81C410801002006480068064908603D
:104E90000448001F006848600248083800688860BD
:104EA00070470000F0F7FF1F6403002070B5044650
:104EB0002146D020FCF700FD0546601CC1B2D02081
:104EC000FCF7FAFC064606EB052070BD70B50446FB
:104ED0000D460849206803F045FE286005496068D2
:104EE00003F040FE68600349A06803F03BFEA86041
:104EF00070BD000090C1793D70B54320FFF7D6FF2B
:104F0000064603F0CFFD05462A480168284603F00F
:104F100031FF044603F060FD00B2274908804520B8
:104F2000FFF7C4FF064603F0BDFD05462148416872
:104F3000284603F01FFF044603F04EFD00B21E4951
:104F400048804720FFF7B2FF064603F0ABFD054659
:104F500018488168284603F00DFF044603F03CFD25
:104F600000B215498880B1F9000003F09BFD0446AA
:104F7000124A1349FFF7CAFA124908600E49B1F9FB
:104F8000020003F08FFD04460C4A0D491831FFF76B
:104F9000BDFA0C4948600849B1F9040003F082FDEC
:104FA0000446064A06493031FFF7B0FA05498860E1
:104FB00070BD00005C0100202A00002030000020AD
:104FC00094010020140100202DE9F04704460D460D
:104FD000164631460A4803F0C5FD814649464FF062
:104FE0007E5003F003FC8046294603F08BFB074606
:104FF0003946284603F0FAFB2060BDE8F087000040
:10500000DB0FC94010B57521D020FCF755FC0446D4
:10501000204610BD2DE9F74F82B0514A049990689F
:1050200003F0A0FD05464E4A0399506803F09AFD2F
:1050300006464B4A0299106803F094FD0746314634
:1050400003F060FB0446294603F05CFB4549086019
:10505000434A0499506903F085FD0546404A039987
:10506000106903F07FFD06463D4A0299D06803F0BF
:1050700079FD0746314603F045FB0446294603F017
:1050800041FB38494860364A0499106A03F06AFDCA
:105090000546334A0399D06903F064FD0646304A59
:1050A0000299906903F05EFD0746314603F02AFB42
:1050B0000446294603F026FB2A49886008682A49E5
:1050C00003F050FD274908600868284903F04AFDAD
:1050D000244908604868244903F044FD2149486098
:1050E0004868224903F03EFD1E49486088681E4911
:1050F00003F038FD1B49886088681D4903F03AFEBB
:10510000184988608868194903F02CFD15498860A2
:105110000A465168506803F025FD124A0190116853
:10512000106803F01FFD82460E4A9168906803F0F4
:1051300019FD8346514603F0E5FA8146019903F0D3
:10514000E1FA044603F0B2FA074602F01EFB0546F8
:1051500002F0F6FC0349C86005B0BDE8F08F00001E
:10516000080400206C0700200AE81C3B0000C8422D
:105170000AE81C4170B504460D460849206803F052
:10518000F1FC28600549606803F0ECFC68600349A5
:10519000A06803F0E7FCA86070BD0000797D8B3A41
:1051A00010B50F48007800F00300401C0C4908704F
:1051B0000846007800F00300012806D102F090F9BB
:1051C00002F0C6F90749886008E002F053F902F0DE
:1051D000C5F80449086000200149087010BD0000AE
:1051E000A2000020BC0400202DE9F04104460E4836
:1051F0004168204603F0FAFA06464FF07E5103F06C
:10520000B1FC05460949284600F0AAFF07464FF0C1
:105210007E5103F0A4FD0646054903F0A3FC0249B4
:10522000C860BDE8F0810000BC040020B1DC423E53
:10523000D048874A10B5FFF7B3FF1248407864287A
:1052400004DC10484078401C0E4948700D484078F6
:1052500063280DD10C48007820F00100401C0A4959
:1052600008700A480068094948600868FFF7BCFFF1
:105270000548007800F0010018B104490868FFF7FC
:10528000B3FF10BDA2000020A0000020BC0400203D
:1052900010B586B004462C480079012852D12A481E
:1052A0004088B0F5FA7F19DA274A2168106903F0BF
:1052B00029FA25490861244A6168506903F022FAF5
:1052C00021494861204AA168906903F01BFA1E49F0
:1052D000886108464088401C488033E000201A4915
:1052E00048800869194903F081FA174988624869BA
:1052F000164903F07BFA1449C8628869134903F020
:1053000075FA114908630846006BC96A0E4A926A29
:105310000F4BD3F89830CDE90232CDE904100C4898
:10532000D0F894000A49D1F89010CDE9001008484F
:10533000D0F88030C26F816F2420FFF779FB002006
:105340000149087106B010BD240200200000FA4394
:105350005802002010B51B4890F82400C0F38100CB
:10536000012810D117494868174903F0C7FC0AD82B
:1053700014498868002103F0FBFA04D1134800881F
:10538000401C124908800F4890F82400C0F38100A7
:10539000012816D10B4948680B4903F0AFFC10D81F
:1053A00008498868002103F0E3FA0AD10748008819
:1053B000B0F5167F05DB0020044908800120087144
:1053C000487110BDE00300200000C8412402002005
:1053D00010B51048416AC0F88C100F4801680D489C
:1053E000C0F89010843000F047FE0A48016DC0F804
:1053F000B810094841680748C0F8BC10B03000F048
:105400003BFE054881680348C0F8E810DC3000F036
:1054100033FE10BDCC0400206801002070B52E487A
:105420004088B0F5AF7F0DDB2B48408840F28A21E1
:10543000884207DC2948007820F0F0002030274916
:10544000087019E02448408840F28A21884207DD2C
:105450002248007820F0F0003030204908700BE03E
:105460001D484088B0F5AF7F06DA1C48007820F070
:10547000F000103019490870184800780009012818
:1054800004D0022805D0032809D105E0FFF72CF944
:1054900006E000F051F803E001F0CAFA00E000BFB6
:1054A00000BF0F48816B0F48C0F8401100F59A709B
:1054B00000F0E2FD0C49088803F00CFB05460948A2
:1054C000D0F85811284603F01DF9044603F0CAFA33
:1054D0000549488070BD0000E0030020AC000020BA
:1054E00098070020CC040020A80000202DE9F047F8
:1054F00004464FF07C51204603F034FB814625469C
:105500002E460C48A0EB660635462946484603F071
:1055100029FB8246294603F025FB80464FF07F5148
:1055200003F01DFC0746294603F01CFB05462846F0
:10553000BDE8F087DF59375F10B51349D1F868012E
:10554000002103F015FA04D11048816E0E48C0F80E
:1055500068110F480078401C0D4908700846007813
:1055600002280FDB002008700848816E0648C0F84A
:105570006C1100F5B07000F07FFD0348D0F8841185
:10558000C0F83C1110BD0000CC040020980700209A
:10559000A400002008B501211420FCF701FC102014
:1055A0008DF8030003208DF802004FF46040ADF841
:1055B000000069460948FCF798F810208DF80300B0
:1055C00003208DF802004FF48050ADF800006946CA
:1055D0000348FCF78AF800F047F808BD00100140C6
:1055E00000080140012802D1C103094A11610228C3
:1055F00002D14103064A1161032803D14FF48051BF
:10560000044A1160042802D1C102014A11617047A5
:10561000001001401008014000B50120FFF7E2FF33
:105620000220FFF7DFFF0320FFF7DCFF0420FFF776
:10563000D9FF00BD012802D1C103094A51610228E6
:1056400002D14103064A5161032803D14FF480512E
:10565000044A1160042802D1C102014A5161704715
:10566000001001401408014010B50120FFF7E2FFCF
:105670000220FFF7DFFF0320FFF7DCFF0420FFF726
:10568000D9FF4FF4FA731A461946184601F0E0F8AC
:1056900010BD0000012805D10F49C96881F40041FF
:1056A0000D4AD160022805D10B49C96881F48041B7
:1056B000094AD160032805D10849096881F480515D
:1056C000064A1160042805D10349C96881F40051D4
:1056D000014AD16070470000001001400C080140F1
:1056E0000FB597B01C991A9803F03CFA0E901D99CB
:1056F00003F038FA00210F9003F03AF901D11BB002
:1057000000BDFE4802F0BAF81D99084603F02AFAD7
:105710000E901C99084603F025FA0C901A99084639
:1057200003F020FA0B900C9902F0ECFF0D900E990B
:1057300002F0E8FF0F90FFF7D9FE169016991A981D
:1057400003F010FA1A9016991C9803F00BFA1C90AB
:1057500016991D9803F006FA1D90E948C06A159045
:10576000E748806B1490E648406C139014991D989C
:1057700003F0F8F90F9013991C9803F0F3F90E90C9
:105780000F9903F0F7FA129013991A9803F0EAF9B7
:105790000F9015991D9803F0E5F90E900F9903F0FD
:1057A000E9FA119015991C9803F0DCF90F901499FF
:1057B0001A9803F0D7F90E900F9903F0DBFA1090C6
:1057C000D049129803F0CEF90F90CF4801680F9896
:1057D00002F098FFCC490860CA49119803F0C2F959
:1057E0000F90CA4801680F9802F08CFFC749086003
:1057F000C449109803F0B6F90F90C54801680F9896
:1058000002F080FFC24908604FF07C50129903F00B
:10581000A9F90E90179902F075FF0F90BA48016828
:105820000F9802F06FFF17904FF07C50119903F022
:1058300099F90E90189902F065FF0F90B34801682E
:105840000F9802F05FFF18904FF07C50109903F012
:1058500089F90E90199902F055FF0F90AC48016834
:105860000F9802F04FFF1990AA481999006803F0A9
:1058700079F90C90A8481899006803F073F90A9018
:10588000A648006880F000400890179903F06AF974
:1058900009900A9903F06EFA0B900C9903F06AFADA
:1058A0000D909648C06801460C900D9803F05AF987
:1058B0009B490E9003F056F90F909A4801680F9893
:1058C00002F020FF9749086092481899006803F099
:1058D00049F90C9090481999006803F043F90A902F
:1058E00090480168179803F03DF909900A9902F071
:1058F00009FF0B900C9903F03DFA0D907F48C068AA
:1059000001460C900D9803F02DF985490E9003F097
:1059100029F90F90814801680F9802F0F3FE7F4942
:1059200008607C480168179803F01CF90C907B48CC
:105930001999006803F016F90A907A4818990068D6
:1059400003F010F909900A9903F014FA0B900C99DE
:1059500002F0D8FE0D906948C06801460C900D9881
:1059600003F000F96E490E9003F0FCF80F906A48BE
:1059700001680F9802F0C6FE674908600846016892
:10598000179803F0EFF80C9064481899006803F03A
:10599000E9F80A9063481999006803F0E3F8099060
:1059A0000A9902F0AFFE0B900C9903F0E3F90D9009
:1059B0005248C06801460C900D9803F0D3F858493E
:1059C0000E9003F0CFF80F90524801680F9802F044
:1059D00099FE5049086008460168006803F0C2F863
:1059E0000E904D480168006803F0BCF80C904B48DD
:1059F0000168006803F0B6F80A904A480168006838
:105A000003F0B0F809900A9902F07CFE0B900C9913
:105A100002F078FE0D900E9902F074FE0F90FFF7E1
:105A200065FD16903F481699006803F09BF83D49C4
:105A300008603A481699006803F094F837490860FE
:105A400035481699006803F08DF8334908603148ED
:105A50001699006803F086F82E4908600846016828
:105A6000006803F07FF806902B480168006803F097
:105A700079F8049029480168006803F073F80290EF
:105A800028480168006803F06DF80190029903F05E
:105A900071F90390049903F06DF90590069902F0ED
:105AA00031FE079002F002FECDE90A0119480168B3
:105AB0001948006803F056F805901848016819481D
:105AC000006803F04FF80490059902F01BFE4FF0B8
:105AD0008041069003F046F8079002F0E7FDCDE91B
